{
  "_format": "hh-sol-artifact-1",
  "contractName": "DecentralizedKYC1",
  "sourceName": "contracts/DecentralizedKYC1.sol",
  "abi": [
    {
      "inputs": [],
      "stateMutability": "nonpayable",
      "type": "constructor"
    },
    {
      "inputs": [],
      "name": "admin",
      "outputs": [
        {
          "internalType": "address",
          "name": "",
          "type": "address"
        }
      ],
      "stateMutability": "view",
      "type": "function"
    },
    {
      "inputs": [
        {
          "internalType": "address",
          "name": "_userAddress",
          "type": "address"
        }
      ],
      "name": "fetchKYCDataAndProof",
      "outputs": [
        {
          "internalType": "string",
          "name": "jsonHash",
          "type": "string"
        },
        {
          "internalType": "string",
          "name": "photoHash",
          "type": "string"
        },
        {
          "internalType": "string",
          "name": "frontHash",
          "type": "string"
        },
        {
          "internalType": "string",
          "name": "backHash",
          "type": "string"
        },
        {
          "internalType": "bytes32",
          "name": "sha256Hash",
          "type": "bytes32"
        }
      ],
      "stateMutability": "view",
      "type": "function"
    },
    {
      "inputs": [],
      "name": "getAllBanksAddress",
      "outputs": [
        {
          "internalType": "address[]",
          "name": "",
          "type": "address[]"
        }
      ],
      "stateMutability": "view",
      "type": "function"
    },
    {
      "inputs": [],
      "name": "getBank",
      "outputs": [
        {
          "components": [
            {
              "internalType": "string",
              "name": "name",
              "type": "string"
            },
            {
              "internalType": "string",
              "name": "license",
              "type": "string"
            },
            {
              "internalType": "bool",
              "name": "isRegistered",
              "type": "bool"
            },
            {
              "internalType": "bool",
              "name": "isVerified",
              "type": "bool"
            }
          ],
          "internalType": "struct DecentralizedKYC1.Bank",
          "name": "",
          "type": "tuple"
        }
      ],
      "stateMutability": "view",
      "type": "function"
    },
    {
      "inputs": [],
      "name": "getBankClients",
      "outputs": [
        {
          "internalType": "address[]",
          "name": "",
          "type": "address[]"
        }
      ],
      "stateMutability": "view",
      "type": "function"
    },
    {
      "inputs": [
        {
          "internalType": "address",
          "name": "_bank",
          "type": "address"
        }
      ],
      "name": "getBankClientsAddrSupp",
      "outputs": [
        {
          "internalType": "address[]",
          "name": "",
          "type": "address[]"
        }
      ],
      "stateMutability": "view",
      "type": "function"
    },
    {
      "inputs": [
        {
          "internalType": "address",
          "name": "_bank",
          "type": "address"
        }
      ],
      "name": "getBankDetails",
      "outputs": [
        {
          "components": [
            {
              "internalType": "string",
              "name": "name",
              "type": "string"
            },
            {
              "internalType": "string",
              "name": "license",
              "type": "string"
            },
            {
              "internalType": "bool",
              "name": "isRegistered",
              "type": "bool"
            },
            {
              "internalType": "bool",
              "name": "isVerified",
              "type": "bool"
            }
          ],
          "internalType": "struct DecentralizedKYC1.Bank",
          "name": "",
          "type": "tuple"
        }
      ],
      "stateMutability": "view",
      "type": "function"
    },
    {
      "inputs": [],
      "name": "getKYC",
      "outputs": [
        {
          "components": [
            {
              "internalType": "string",
              "name": "jsonHash",
              "type": "string"
            },
            {
              "internalType": "string",
              "name": "photoHash",
              "type": "string"
            },
            {
              "internalType": "string",
              "name": "frontHash",
              "type": "string"
            },
            {
              "internalType": "string",
              "name": "backHash",
              "type": "string"
            },
            {
              "internalType": "uint256",
              "name": "privateKey",
              "type": "uint256"
            },
            {
              "internalType": "uint256",
              "name": "publicKey",
              "type": "uint256"
            },
            {
              "internalType": "uint256",
              "name": "encryptKey",
              "type": "uint256"
            },
            {
              "internalType": "bytes32",
              "name": "sha256Hash",
              "type": "bytes32"
            },
            {
              "internalType": "address",
              "name": "verifiedBy",
              "type": "address"
            }
          ],
          "internalType": "struct DecentralizedKYC1.Kyc",
          "name": "",
          "type": "tuple"
        }
      ],
      "stateMutability": "view",
      "type": "function"
    },
    {
      "inputs": [],
      "name": "getMessageSender",
      "outputs": [
        {
          "internalType": "address",
          "name": "",
          "type": "address"
        }
      ],
      "stateMutability": "view",
      "type": "function"
    },
    {
      "inputs": [],
      "name": "getReceivedRequests",
      "outputs": [
        {
          "internalType": "address[]",
          "name": "",
          "type": "address[]"
        }
      ],
      "stateMutability": "view",
      "type": "function"
    },
    {
      "inputs": [],
      "name": "getRequestedBank",
      "outputs": [
        {
          "internalType": "address",
          "name": "",
          "type": "address"
        }
      ],
      "stateMutability": "view",
      "type": "function"
    },
    {
      "inputs": [],
      "name": "getRequestedUsers",
      "outputs": [
        {
          "internalType": "address[]",
          "name": "",
          "type": "address[]"
        }
      ],
      "stateMutability": "view",
      "type": "function"
    },
    {
      "inputs": [],
      "name": "getSentRequests",
      "outputs": [
        {
          "internalType": "address[]",
          "name": "",
          "type": "address[]"
        }
      ],
      "stateMutability": "view",
      "type": "function"
    },
    {
      "inputs": [],
      "name": "getUser",
      "outputs": [
        {
          "components": [
            {
              "internalType": "string",
              "name": "name",
              "type": "string"
            },
            {
              "internalType": "string",
              "name": "email",
              "type": "string"
            },
            {
              "internalType": "string",
              "name": "phone",
              "type": "string"
            },
            {
              "internalType": "bool",
              "name": "isRegistered",
              "type": "bool"
            },
            {
              "internalType": "enum DecentralizedKYC1.KYC_STATUS",
              "name": "kycStatus",
              "type": "uint8"
            }
          ],
          "internalType": "struct DecentralizedKYC1.User",
          "name": "",
          "type": "tuple"
        }
      ],
      "stateMutability": "view",
      "type": "function"
    },
    {
      "inputs": [],
      "name": "getUserAllBanks",
      "outputs": [
        {
          "internalType": "address[]",
          "name": "",
          "type": "address[]"
        }
      ],
      "stateMutability": "view",
      "type": "function"
    },
    {
      "inputs": [],
      "name": "getUserCount",
      "outputs": [
        {
          "internalType": "uint256",
          "name": "count",
          "type": "uint256"
        }
      ],
      "stateMutability": "view",
      "type": "function"
    },
    {
      "inputs": [
        {
          "internalType": "address",
          "name": "user",
          "type": "address"
        }
      ],
      "name": "getUserDetails",
      "outputs": [
        {
          "components": [
            {
              "internalType": "string",
              "name": "name",
              "type": "string"
            },
            {
              "internalType": "string",
              "name": "email",
              "type": "string"
            },
            {
              "internalType": "string",
              "name": "phone",
              "type": "string"
            },
            {
              "internalType": "bool",
              "name": "isRegistered",
              "type": "bool"
            },
            {
              "internalType": "enum DecentralizedKYC1.KYC_STATUS",
              "name": "kycStatus",
              "type": "uint8"
            }
          ],
          "internalType": "struct DecentralizedKYC1.User",
          "name": "",
          "type": "tuple"
        }
      ],
      "stateMutability": "view",
      "type": "function"
    },
    {
      "inputs": [
        {
          "internalType": "address",
          "name": "_userAddress",
          "type": "address"
        }
      ],
      "name": "getUserKYC",
      "outputs": [
        {
          "components": [
            {
              "internalType": "string",
              "name": "jsonHash",
              "type": "string"
            },
            {
              "internalType": "string",
              "name": "photoHash",
              "type": "string"
            },
            {
              "internalType": "string",
              "name": "frontHash",
              "type": "string"
            },
            {
              "internalType": "string",
              "name": "backHash",
              "type": "string"
            },
            {
              "internalType": "uint256",
              "name": "privateKey",
              "type": "uint256"
            },
            {
              "internalType": "uint256",
              "name": "publicKey",
              "type": "uint256"
            },
            {
              "internalType": "uint256",
              "name": "encryptKey",
              "type": "uint256"
            },
            {
              "internalType": "bytes32",
              "name": "sha256Hash",
              "type": "bytes32"
            },
            {
              "internalType": "address",
              "name": "verifiedBy",
              "type": "address"
            }
          ],
          "internalType": "struct DecentralizedKYC1.Kyc",
          "name": "",
          "type": "tuple"
        }
      ],
      "stateMutability": "view",
      "type": "function"
    },
    {
      "inputs": [],
      "name": "getVerifiedBankCount",
      "outputs": [
        {
          "internalType": "uint256",
          "name": "count",
          "type": "uint256"
        }
      ],
      "stateMutability": "view",
      "type": "function"
    },
    {
      "inputs": [
        {
          "internalType": "address",
          "name": "_bank",
          "type": "address"
        }
      ],
      "name": "grantAccess",
      "outputs": [],
      "stateMutability": "nonpayable",
      "type": "function"
    },
    {
      "inputs": [],
      "name": "isAdmin",
      "outputs": [
        {
          "internalType": "bool",
          "name": "",
          "type": "bool"
        }
      ],
      "stateMutability": "view",
      "type": "function"
    },
    {
      "inputs": [],
      "name": "isBankValid",
      "outputs": [
        {
          "internalType": "bool",
          "name": "",
          "type": "bool"
        }
      ],
      "stateMutability": "view",
      "type": "function"
    },
    {
      "inputs": [],
      "name": "isBankVerified",
      "outputs": [
        {
          "internalType": "bool",
          "name": "",
          "type": "bool"
        }
      ],
      "stateMutability": "view",
      "type": "function"
    },
    {
      "inputs": [],
      "name": "isUserValid",
      "outputs": [
        {
          "internalType": "bool",
          "name": "",
          "type": "bool"
        }
      ],
      "stateMutability": "view",
      "type": "function"
    },
    {
      "inputs": [
        {
          "internalType": "string",
          "name": "_name",
          "type": "string"
        },
        {
          "internalType": "string",
          "name": "_license",
          "type": "string"
        }
      ],
      "name": "registerBank",
      "outputs": [],
      "stateMutability": "nonpayable",
      "type": "function"
    },
    {
      "inputs": [
        {
          "internalType": "string",
          "name": "_name",
          "type": "string"
        },
        {
          "internalType": "string",
          "name": "_email",
          "type": "string"
        },
        {
          "internalType": "string",
          "name": "_phone",
          "type": "string"
        }
      ],
      "name": "registerUser",
      "outputs": [],
      "stateMutability": "nonpayable",
      "type": "function"
    },
    {
      "inputs": [
        {
          "internalType": "address",
          "name": "_userAddress",
          "type": "address"
        }
      ],
      "name": "rejectUserKYC",
      "outputs": [
        {
          "internalType": "string",
          "name": "",
          "type": "string"
        }
      ],
      "stateMutability": "nonpayable",
      "type": "function"
    },
    {
      "inputs": [
        {
          "internalType": "address",
          "name": "_client",
          "type": "address"
        }
      ],
      "name": "requestAccess",
      "outputs": [],
      "stateMutability": "nonpayable",
      "type": "function"
    },
    {
      "inputs": [
        {
          "internalType": "address",
          "name": "_bank",
          "type": "address"
        }
      ],
      "name": "requestVerification",
      "outputs": [],
      "stateMutability": "nonpayable",
      "type": "function"
    },
    {
      "inputs": [],
      "name": "root",
      "outputs": [
        {
          "internalType": "bytes32",
          "name": "",
          "type": "bytes32"
        }
      ],
      "stateMutability": "view",
      "type": "function"
    },
    {
      "inputs": [
        {
          "internalType": "string",
          "name": "_jsonHash",
          "type": "string"
        },
        {
          "internalType": "string",
          "name": "_photoHash",
          "type": "string"
        },
        {
          "internalType": "string",
          "name": "_frontHash",
          "type": "string"
        },
        {
          "internalType": "string",
          "name": "_backHash",
          "type": "string"
        },
        {
          "internalType": "uint256",
          "name": "_privateKey",
          "type": "uint256"
        },
        {
          "internalType": "uint256",
          "name": "_publicKey",
          "type": "uint256"
        },
        {
          "internalType": "uint256",
          "name": "_encryptKey",
          "type": "uint256"
        },
        {
          "internalType": "bytes32",
          "name": "_sha256Hash",
          "type": "bytes32"
        }
      ],
      "name": "uploadKyc",
      "outputs": [],
      "stateMutability": "nonpayable",
      "type": "function"
    },
    {
      "inputs": [
        {
          "internalType": "address",
          "name": "_bank",
          "type": "address"
        }
      ],
      "name": "verifyBank",
      "outputs": [],
      "stateMutability": "nonpayable",
      "type": "function"
    },
    {
      "inputs": [
        {
          "internalType": "address",
          "name": "_userAddress",
          "type": "address"
        }
      ],
      "name": "verifyUserKYC",
      "outputs": [
        {
          "internalType": "string",
          "name": "",
          "type": "string"
        }
      ],
      "stateMutability": "nonpayable",
      "type": "function"
    }
  ],
  "bytecode": "0x608060405234801561001057600080fd5b50336000806101000a81548173ffffffffffffffffffffffffffffffffffffffff021916908373ffffffffffffffffffffffffffffffffffffffff1602179055506157cf80620000616000396000f3fe608060405234801561001057600080fd5b50600436106101fb5760003560e01c8063832880e71161011a578063cfdade6d116100ad578063e7e5798e1161007c578063e7e5798e146105ac578063ebf0c717146105dc578063f0618ef8146105fa578063f851a44014610616578063fe9007a114610634576101fb565b8063cfdade6d14610536578063d1d3c97c14610554578063d637dcfa14610572578063d8228fca1461058e576101fb565b8063b5cb15f7116100e9578063b5cb15f71461049a578063b6db75a0146104b8578063c70d9568146104d6578063cc3d967b14610506576101fb565b8063832880e7146104105780638abb50ab1461042e5780639832bc141461044c5780639d80358d1461046a576101fb565b806360d704db116101925780637181454c116101615780637181454c1461038857806372515b03146103a657806376167a89146103d657806376f9c86d146103f4576101fb565b806360d704db1461031457806363d5ed501461033257806369c8d7a9146103505780636da04e641461036c576101fb565b806315101e02116101ce57806315101e021461028a57806335c95c40146102ba578063394b6f0e146102d857806346cbe68a146102f6576101fb565b8063022cb27114610200578063082eaf811461021c57806308c2cc0f1461023a5780630ae5e7391461026e575b600080fd5b61021a60048036038101906102159190614481565b610652565b005b6102246108ed565b604051610231919061456c565b60405180910390f35b610254600480360381019061024f9190614481565b610a4e565b604051610265959493929190614637565b60405180910390f35b61028860048036038101906102839190614481565b610ee4565b005b6102a4600480360381019061029f9190614481565b6110dd565b6040516102b19190614775565b60405180910390f35b6102c2611326565b6040516102cf919061456c565b60405180910390f35b6102e06113f1565b6040516102ed919061456c565b60405180910390f35b6102fe6114bc565b60405161030b91906147b0565b60405180910390f35b61031c6114c9565b6040516103299190614775565b60405180910390f35b61033a611710565b604051610347919061456c565b60405180910390f35b61036a60048036038101906103659190614900565b611871565b005b61038660048036038101906103819190614481565b611ad9565b005b610390611d54565b60405161039d919061456c565b60405180910390f35b6103c060048036038101906103bb9190614481565b611f03565b6040516103cd9190614a70565b60405180910390f35b6103de612405565b6040516103eb9190614aa1565b60405180910390f35b61040e60048036038101906104099190614b14565b61240d565b005b6104186127b2565b6040516104259190614d35565b60405180910390f35b610436612aab565b604051610443919061456c565b60405180910390f35b610454612b39565b6040516104619190614d66565b60405180910390f35b610484600480360381019061047f9190614481565b612ba7565b6040516104919190614d81565b60405180910390f35b6104a2612e33565b6040516104af91906147b0565b60405180910390f35b6104c0612e40565b6040516104cd9190614d66565b60405180910390f35b6104f060048036038101906104eb9190614481565b612ea6565b6040516104fd919061456c565b60405180910390f35b610520600480360381019061051b9190614481565b612f73565b60405161052d9190614d35565b60405180910390f35b61053e613286565b60405161054b9190614d66565b60405180910390f35b61055c6132f4565b6040516105699190614a70565b60405180910390f35b61058c60048036038101906105879190614da3565b61375e565b005b610596613a03565b6040516105a39190614d66565b60405180910390f35b6105c660048036038101906105c19190614481565b613a71565b6040516105d39190614d81565b60405180910390f35b6105e4613ea1565b6040516105f19190614e4a565b60405180910390f35b610614600480360381019061060f9190614481565b613ea7565b005b61061e61421a565b60405161062b9190614aa1565b60405180910390f35b61063c61423e565b6040516106499190614aa1565b60405180910390f35b60011515600360003373ffffffffffffffffffffffffffffffffffffffff1673ffffffffffffffffffffffffffffffffffffffff16815260200190815260200160002060020160019054906101000a900460ff161515146106e8576040517f08c379a00000000000000000000000000000000000000000000000000000000081526004016106df90614eb1565b60405180910390fd5b600360048111156106fc576106fb614c3a565b5b600260008373ffffffffffffffffffffffffffffffffffffffff1673ffffffffffffffffffffffffffffffffffffffff16815260200190815260200160002060030160019054906101000a900460ff16600481111561075e5761075d614c3a565b5b1461079e576040517f08c379a000000000000000000000000000000000000000000000000000000000815260040161079590614f1d565b60405180910390fd5b6000600760003373ffffffffffffffffffffffffffffffffffffffff1673ffffffffffffffffffffffffffffffffffffffff168152602001908152602001600020905080829080600181540180825580915050600190039060005260206000200160009091909190916101000a81548173ffffffffffffffffffffffffffffffffffffffff021916908373ffffffffffffffffffffffffffffffffffffffff1602179055506000600860008473ffffffffffffffffffffffffffffffffffffffff1673ffffffffffffffffffffffffffffffffffffffff168152602001908152602001600020905080339080600181540180825580915050600190039060005260206000200160009091909190916101000a81548173ffffffffffffffffffffffffffffffffffffffff021916908373ffffffffffffffffffffffffffffffffffffffff160217905550505050565b606060011515600360003373ffffffffffffffffffffffffffffffffffffffff1673ffffffffffffffffffffffffffffffffffffffff16815260200190815260200160002060020160019054906101000a900460ff16151514610985576040517f08c379a000000000000000000000000000000000000000000000000000000000815260040161097c90614eb1565b60405180910390fd5b600960003373ffffffffffffffffffffffffffffffffffffffff1673ffffffffffffffffffffffffffffffffffffffff168152602001908152602001600020805480602002602001604051908101604052809291908181526020018280548015610a4457602002820191906000526020600020905b8160009054906101000a900473ffffffffffffffffffffffffffffffffffffffff1673ffffffffffffffffffffffffffffffffffffffff16815260200190600101908083116109fa575b5050505050905090565b606080606080600060011515600360003373ffffffffffffffffffffffffffffffffffffffff1673ffffffffffffffffffffffffffffffffffffffff16815260200190815260200160002060020160009054906101000a900460ff16151514610aec576040517f08c379a0000000000000000000000000000000000000000000000000000000008152600401610ae390614f89565b60405180910390fd5b60006004811115610b0057610aff614c3a565b5b600260008873ffffffffffffffffffffffffffffffffffffffff1673ffffffffffffffffffffffffffffffffffffffff16815260200190815260200160002060030160019054906101000a900460ff166004811115610b6257610b61614c3a565b5b03610ba2576040517f08c379a0000000000000000000000000000000000000000000000000000000008152600401610b9990614ff5565b60405180910390fd5b6000600460008873ffffffffffffffffffffffffffffffffffffffff1673ffffffffffffffffffffffffffffffffffffffff16815260200190815260200160002060405180610120016040529081600082018054610bff90615044565b80601f0160208091040260200160405190810160405280929190818152602001828054610c2b90615044565b8015610c785780601f10610c4d57610100808354040283529160200191610c78565b820191906000526020600020905b815481529060010190602001808311610c5b57829003601f168201915b50505050508152602001600182018054610c9190615044565b80601f0160208091040260200160405190810160405280929190818152602001828054610cbd90615044565b8015610d0a5780601f10610cdf57610100808354040283529160200191610d0a565b820191906000526020600020905b815481529060010190602001808311610ced57829003601f168201915b50505050508152602001600282018054610d2390615044565b80601f0160208091040260200160405190810160405280929190818152602001828054610d4f90615044565b8015610d9c5780601f10610d7157610100808354040283529160200191610d9c565b820191906000526020600020905b815481529060010190602001808311610d7f57829003601f168201915b50505050508152602001600382018054610db590615044565b80601f0160208091040260200160405190810160405280929190818152602001828054610de190615044565b8015610e2e5780601f10610e0357610100808354040283529160200191610e2e565b820191906000526020600020905b815481529060010190602001808311610e1157829003601f168201915b50505050508152602001600482015481526020016005820154815260200160068201548152602001600782015481526020016008820160009054906101000a900473ffffffffffffffffffffffffffffffffffffffff1673ffffffffffffffffffffffffffffffffffffffff1673ffffffffffffffffffffffffffffffffffffffff16815250509050806000015195508060200151945080604001519350806060015192508060e0015191505091939590929450565b60036004811115610ef857610ef7614c3a565b5b600260003373ffffffffffffffffffffffffffffffffffffffff1673ffffffffffffffffffffffffffffffffffffffff16815260200190815260200160002060030160019054906101000a900460ff166004811115610f5a57610f59614c3a565b5b14610f9a576040517f08c379a0000000000000000000000000000000000000000000000000000000008152600401610f9190614f1d565b60405180910390fd5b600960008273ffffffffffffffffffffffffffffffffffffffff1673ffffffffffffffffffffffffffffffffffffffff168152602001908152602001600020339080600181540180825580915050600190039060005260206000200160009091909190916101000a81548173ffffffffffffffffffffffffffffffffffffffff021916908373ffffffffffffffffffffffffffffffffffffffff160217905550600a60003373ffffffffffffffffffffffffffffffffffffffff1673ffffffffffffffffffffffffffffffffffffffff168152602001908152602001600020819080600181540180825580915050600190039060005260206000200160009091909190916101000a81548173ffffffffffffffffffffffffffffffffffffffff021916908373ffffffffffffffffffffffffffffffffffffffff16021790555050565b6110e561433b565b60011515600360008473ffffffffffffffffffffffffffffffffffffffff1673ffffffffffffffffffffffffffffffffffffffff16815260200190815260200160002060020160009054906101000a900460ff1615151461117b576040517f08c379a000000000000000000000000000000000000000000000000000000000815260040161117290614f89565b60405180910390fd5b600360008373ffffffffffffffffffffffffffffffffffffffff1673ffffffffffffffffffffffffffffffffffffffff1681526020019081526020016000206040518060800160405290816000820180546111d590615044565b80601f016020809104026020016040519081016040528092919081815260200182805461120190615044565b801561124e5780601f106112235761010080835404028352916020019161124e565b820191906000526020600020905b81548152906001019060200180831161123157829003601f168201915b5050505050815260200160018201805461126790615044565b80601f016020809104026020016040519081016040528092919081815260200182805461129390615044565b80156112e05780601f106112b5576101008083540402835291602001916112e0565b820191906000526020600020905b8154815290600101906020018083116112c357829003601f168201915b505050505081526020016002820160009054906101000a900460ff161515151581526020016002820160019054906101000a900460ff1615151515815250509050919050565b6060600760003373ffffffffffffffffffffffffffffffffffffffff1673ffffffffffffffffffffffffffffffffffffffff1681526020019081526020016000208054806020026020016040519081016040528092919081815260200182805480156113e757602002820191906000526020600020905b8160009054906101000a900473ffffffffffffffffffffffffffffffffffffffff1673ffffffffffffffffffffffffffffffffffffffff168152602001906001019080831161139d575b5050505050905090565b6060600860003373ffffffffffffffffffffffffffffffffffffffff1673ffffffffffffffffffffffffffffffffffffffff1681526020019081526020016000208054806020026020016040519081016040528092919081815260200182805480156114b257602002820191906000526020600020905b8160009054906101000a900473ffffffffffffffffffffffffffffffffffffffff1673ffffffffffffffffffffffffffffffffffffffff1681526020019060010190808311611468575b5050505050905090565b6000600d80549050905090565b6114d161433b565b60011515600360003373ffffffffffffffffffffffffffffffffffffffff1673ffffffffffffffffffffffffffffffffffffffff16815260200190815260200160002060020160009054906101000a900460ff16151514611567576040517f08c379a000000000000000000000000000000000000000000000000000000000815260040161155e90614f89565b60405180910390fd5b600360003373ffffffffffffffffffffffffffffffffffffffff1673ffffffffffffffffffffffffffffffffffffffff1681526020019081526020016000206040518060800160405290816000820180546115c190615044565b80601f01602080910402602001604051908101604052809291908181526020018280546115ed90615044565b801561163a5780601f1061160f5761010080835404028352916020019161163a565b820191906000526020600020905b81548152906001019060200180831161161d57829003601f168201915b5050505050815260200160018201805461165390615044565b80601f016020809104026020016040519081016040528092919081815260200182805461167f90615044565b80156116cc5780601f106116a1576101008083540402835291602001916116cc565b820191906000526020600020905b8154815290600101906020018083116116af57829003601f168201915b505050505081526020016002820160009054906101000a900460ff161515151581526020016002820160019054906101000a900460ff161515151581525050905090565b606060011515600260003373ffffffffffffffffffffffffffffffffffffffff1673ffffffffffffffffffffffffffffffffffffffff16815260200190815260200160002060030160009054906101000a900460ff161515146117a8576040517f08c379a000000000000000000000000000000000000000000000000000000000815260040161179f906150c1565b60405180910390fd5b600a60003373ffffffffffffffffffffffffffffffffffffffff1673ffffffffffffffffffffffffffffffffffffffff16815260200190815260200160002080548060200260200160405190810160405280929190818152602001828054801561186757602002820191906000526020600020905b8160009054906101000a900473ffffffffffffffffffffffffffffffffffffffff1673ffffffffffffffffffffffffffffffffffffffff168152602001906001019080831161181d575b5050505050905090565b60011515600360003373ffffffffffffffffffffffffffffffffffffffff1673ffffffffffffffffffffffffffffffffffffffff16815260200190815260200160002060020160009054906101000a900460ff16151503611907576040517f08c379a00000000000000000000000000000000000000000000000000000000081526004016118fe9061512d565b60405180910390fd5b60011515600260003373ffffffffffffffffffffffffffffffffffffffff1673ffffffffffffffffffffffffffffffffffffffff16815260200190815260200160002060030160009054906101000a900460ff1615150361199d576040517f08c379a0000000000000000000000000000000000000000000000000000000008152600401611994906151bf565b60405180910390fd5b604051806080016040528083815260200182815260200160011515815260200160001515815250600360003373ffffffffffffffffffffffffffffffffffffffff1673ffffffffffffffffffffffffffffffffffffffff1681526020019081526020016000206000820151816000019081611a18919061538b565b506020820151816001019081611a2e919061538b565b5060408201518160020160006101000a81548160ff02191690831515021790555060608201518160020160016101000a81548160ff021916908315150217905550905050600b339080600181540180825580915050600190039060005260206000200160009091909190916101000a81548173ffffffffffffffffffffffffffffffffffffffff021916908373ffffffffffffffffffffffffffffffffffffffff1602179055505050565b60008054906101000a900473ffffffffffffffffffffffffffffffffffffffff1673ffffffffffffffffffffffffffffffffffffffff163373ffffffffffffffffffffffffffffffffffffffff1614611b67576040517f08c379a0000000000000000000000000000000000000000000000000000000008152600401611b5e906154a9565b60405180910390fd5b60011515600360008373ffffffffffffffffffffffffffffffffffffffff1673ffffffffffffffffffffffffffffffffffffffff16815260200190815260200160002060020160009054906101000a900460ff16151514611bfd576040517f08c379a0000000000000000000000000000000000000000000000000000000008152600401611bf490614f89565b60405180910390fd5b60001515600360008373ffffffffffffffffffffffffffffffffffffffff1673ffffffffffffffffffffffffffffffffffffffff16815260200190815260200160002060020160019054906101000a900460ff16151514611c93576040517f08c379a0000000000000000000000000000000000000000000000000000000008152600401611c8a90615515565b60405180910390fd5b6001600360008373ffffffffffffffffffffffffffffffffffffffff1673ffffffffffffffffffffffffffffffffffffffff16815260200190815260200160002060020160016101000a81548160ff021916908315150217905550600d819080600181540180825580915050600190039060005260206000200160009091909190916101000a81548173ffffffffffffffffffffffffffffffffffffffff021916908373ffffffffffffffffffffffffffffffffffffffff16021790555050565b606060011515600360003373ffffffffffffffffffffffffffffffffffffffff1673ffffffffffffffffffffffffffffffffffffffff16815260200190815260200160002060020160009054906101000a900460ff16151514611dec576040517f08c379a0000000000000000000000000000000000000000000000000000000008152600401611de390614f89565b60405180910390fd5b60011515611df8613286565b151514611e3a576040517f08c379a0000000000000000000000000000000000000000000000000000000008152600401611e3190614eb1565b60405180910390fd5b600560003373ffffffffffffffffffffffffffffffffffffffff1673ffffffffffffffffffffffffffffffffffffffff168152602001908152602001600020805480602002602001604051908101604052809291908181526020018280548015611ef957602002820191906000526020600020905b8160009054906101000a900473ffffffffffffffffffffffffffffffffffffffff1673ffffffffffffffffffffffffffffffffffffffff1681526020019060010190808311611eaf575b5050505050905090565b611f0b614367565b60011515600360003373ffffffffffffffffffffffffffffffffffffffff1673ffffffffffffffffffffffffffffffffffffffff16815260200190815260200160002060020160009054906101000a900460ff16151514611fa1576040517f08c379a0000000000000000000000000000000000000000000000000000000008152600401611f9890614f89565b60405180910390fd5b60011515600360003373ffffffffffffffffffffffffffffffffffffffff1673ffffffffffffffffffffffffffffffffffffffff16815260200190815260200160002060020160019054906101000a900460ff16151514612037576040517f08c379a000000000000000000000000000000000000000000000000000000000815260040161202e90614eb1565b60405180910390fd5b6000600481111561204b5761204a614c3a565b5b600260008473ffffffffffffffffffffffffffffffffffffffff1673ffffffffffffffffffffffffffffffffffffffff16815260200190815260200160002060030160019054906101000a900460ff1660048111156120ad576120ac614c3a565b5b036120ed576040517f08c379a00000000000000000000000000000000000000000000000000000000081526004016120e490614ff5565b60405180910390fd5b600460008373ffffffffffffffffffffffffffffffffffffffff1673ffffffffffffffffffffffffffffffffffffffff1681526020019081526020016000206040518061012001604052908160008201805461214890615044565b80601f016020809104026020016040519081016040528092919081815260200182805461217490615044565b80156121c15780601f10612196576101008083540402835291602001916121c1565b820191906000526020600020905b8154815290600101906020018083116121a457829003601f168201915b505050505081526020016001820180546121da90615044565b80601f016020809104026020016040519081016040528092919081815260200182805461220690615044565b80156122535780601f1061222857610100808354040283529160200191612253565b820191906000526020600020905b81548152906001019060200180831161223657829003601f168201915b5050505050815260200160028201805461226c90615044565b80601f016020809104026020016040519081016040528092919081815260200182805461229890615044565b80156122e55780601f106122ba576101008083540402835291602001916122e5565b820191906000526020600020905b8154815290600101906020018083116122c857829003601f168201915b505050505081526020016003820180546122fe90615044565b80601f016020809104026020016040519081016040528092919081815260200182805461232a90615044565b80156123775780601f1061234c57610100808354040283529160200191612377565b820191906000526020600020905b81548152906001019060200180831161235a57829003601f168201915b50505050508152602001600482015481526020016005820154815260200160068201548152602001600782015481526020016008820160009054906101000a900473ffffffffffffffffffffffffffffffffffffffff1673ffffffffffffffffffffffffffffffffffffffff1673ffffffffffffffffffffffffffffffffffffffff16815250509050919050565b600033905090565b60011515600260003373ffffffffffffffffffffffffffffffffffffffff1673ffffffffffffffffffffffffffffffffffffffff16815260200190815260200160002060030160009054906101000a900460ff161515146124a3576040517f08c379a000000000000000000000000000000000000000000000000000000000815260040161249a906150c1565b60405180910390fd5b600060048111156124b7576124b6614c3a565b5b600260003373ffffffffffffffffffffffffffffffffffffffff1673ffffffffffffffffffffffffffffffffffffffff16815260200190815260200160002060030160019054906101000a900460ff16600481111561251957612518614c3a565b5b1480612597575060048081111561253357612532614c3a565b5b600260003373ffffffffffffffffffffffffffffffffffffffff1673ffffffffffffffffffffffffffffffffffffffff16815260200190815260200160002060030160019054906101000a900460ff16600481111561259557612594614c3a565b5b145b6125d6576040517f08c379a00000000000000000000000000000000000000000000000000000000081526004016125cd90615581565b60405180910390fd5b60006040518061012001604052808a8152602001898152602001888152602001878152602001868152602001858152602001848152602001838152602001600073ffffffffffffffffffffffffffffffffffffffff16815250905080600460003373ffffffffffffffffffffffffffffffffffffffff1673ffffffffffffffffffffffffffffffffffffffff1681526020019081526020016000206000820151816000019081612686919061538b565b50602082015181600101908161269c919061538b565b5060408201518160020190816126b2919061538b565b5060608201518160030190816126c8919061538b565b506080820151816004015560a0820151816005015560c0820151816006015560e082015181600701556101008201518160080160006101000a81548173ffffffffffffffffffffffffffffffffffffffff021916908373ffffffffffffffffffffffffffffffffffffffff1602179055509050506001600260003373ffffffffffffffffffffffffffffffffffffffff1673ffffffffffffffffffffffffffffffffffffffff16815260200190815260200160002060030160016101000a81548160ff021916908360048111156127a2576127a1614c3a565b5b0217905550505050505050505050565b6127ba6143cc565b60011515600260003373ffffffffffffffffffffffffffffffffffffffff1673ffffffffffffffffffffffffffffffffffffffff16815260200190815260200160002060030160009054906101000a900460ff16151514612850576040517f08c379a0000000000000000000000000000000000000000000000000000000008152600401612847906150c1565b60405180910390fd5b600260003373ffffffffffffffffffffffffffffffffffffffff1673ffffffffffffffffffffffffffffffffffffffff1681526020019081526020016000206040518060a00160405290816000820180546128aa90615044565b80601f01602080910402602001604051908101604052809291908181526020018280546128d690615044565b80156129235780601f106128f857610100808354040283529160200191612923565b820191906000526020600020905b81548152906001019060200180831161290657829003601f168201915b5050505050815260200160018201805461293c90615044565b80601f016020809104026020016040519081016040528092919081815260200182805461296890615044565b80156129b55780601f1061298a576101008083540402835291602001916129b5565b820191906000526020600020905b81548152906001019060200180831161299857829003601f168201915b505050505081526020016002820180546129ce90615044565b80601f01602080910402602001604051908101604052809291908181526020018280546129fa90615044565b8015612a475780601f10612a1c57610100808354040283529160200191612a47565b820191906000526020600020905b815481529060010190602001808311612a2a57829003601f168201915b505050505081526020016003820160009054906101000a900460ff161515151581526020016003820160019054906101000a900460ff166004811115612a9057612a8f614c3a565b5b6004811115612aa257612aa1614c3a565b5b81525050905090565b6060600b805480602002602001604051908101604052809291908181526020018280548015612b2f57602002820191906000526020600020905b8160009054906101000a900473ffffffffffffffffffffffffffffffffffffffff1673ffffffffffffffffffffffffffffffffffffffff1681526020019060010190808311612ae5575b5050505050905090565b600060011515600360003373ffffffffffffffffffffffffffffffffffffffff1673ffffffffffffffffffffffffffffffffffffffff16815260200190815260200160002060020160009054906101000a900460ff16151503612b9f5760019050612ba4565b600090505b90565b606060011515600360003373ffffffffffffffffffffffffffffffffffffffff1673ffffffffffffffffffffffffffffffffffffffff16815260200190815260200160002060020160009054906101000a900460ff16151514612c3f576040517f08c379a0000000000000000000000000000000000000000000000000000000008152600401612c3690614f89565b60405180910390fd5b60026004811115612c5357612c52614c3a565b5b600260008473ffffffffffffffffffffffffffffffffffffffff1673ffffffffffffffffffffffffffffffffffffffff16815260200190815260200160002060030160019054906101000a900460ff166004811115612cb557612cb4614c3a565b5b14612cf5576040517f08c379a0000000000000000000000000000000000000000000000000000000008152600401612cec906155ed565b60405180910390fd5b60011515600360003373ffffffffffffffffffffffffffffffffffffffff1673ffffffffffffffffffffffffffffffffffffffff16815260200190815260200160002060020160019054906101000a900460ff16151514612d8b576040517f08c379a0000000000000000000000000000000000000000000000000000000008152600401612d8290614eb1565b60405180910390fd5b6004600260008473ffffffffffffffffffffffffffffffffffffffff1673ffffffffffffffffffffffffffffffffffffffff16815260200190815260200160002060030160016101000a81548160ff02191690836004811115612df157612df0614c3a565b5b02179055506040518060400160405280601681526020017f4b594320686173206265656e2072656a656374656420000000000000000000008152509050919050565b6000600c80549050905090565b60003373ffffffffffffffffffffffffffffffffffffffff1660008054906101000a900473ffffffffffffffffffffffffffffffffffffffff1673ffffffffffffffffffffffffffffffffffffffff1603612e9e5760019050612ea3565b600090505b90565b6060600960008373ffffffffffffffffffffffffffffffffffffffff1673ffffffffffffffffffffffffffffffffffffffff168152602001908152602001600020805480602002602001604051908101604052809291908181526020018280548015612f6757602002820191906000526020600020905b8160009054906101000a900473ffffffffffffffffffffffffffffffffffffffff1673ffffffffffffffffffffffffffffffffffffffff1681526020019060010190808311612f1d575b50505050509050919050565b612f7b6143cc565b60011515600360003373ffffffffffffffffffffffffffffffffffffffff1673ffffffffffffffffffffffffffffffffffffffff16815260200190815260200160002060020160009054906101000a900460ff16151514613011576040517f08c379a000000000000000000000000000000000000000000000000000000000815260040161300890614f89565b60405180910390fd5b6001151561301d612b39565b15151461302957600080fd5b600260008373ffffffffffffffffffffffffffffffffffffffff1673ffffffffffffffffffffffffffffffffffffffff1681526020019081526020016000206040518060a001604052908160008201805461308390615044565b80601f01602080910402602001604051908101604052809291908181526020018280546130af90615044565b80156130fc5780601f106130d1576101008083540402835291602001916130fc565b820191906000526020600020905b8154815290600101906020018083116130df57829003601f168201915b5050505050815260200160018201805461311590615044565b80601f016020809104026020016040519081016040528092919081815260200182805461314190615044565b801561318e5780601f106131635761010080835404028352916020019161318e565b820191906000526020600020905b81548152906001019060200180831161317157829003601f168201915b505050505081526020016002820180546131a790615044565b80601f01602080910402602001604051908101604052809291908181526020018280546131d390615044565b80156132205780601f106131f557610100808354040283529160200191613220565b820191906000526020600020905b81548152906001019060200180831161320357829003601f168201915b505050505081526020016003820160009054906101000a900460ff161515151581526020016003820160019054906101000a900460ff16600481111561326957613268614c3a565b5b600481111561327b5761327a614c3a565b5b815250509050919050565b600060011515600360003373ffffffffffffffffffffffffffffffffffffffff1673ffffffffffffffffffffffffffffffffffffffff16815260200190815260200160002060020160019054906101000a900460ff161515036132ec57600190506132f1565b600090505b90565b6132fc614367565b60011515600260003373ffffffffffffffffffffffffffffffffffffffff1673ffffffffffffffffffffffffffffffffffffffff16815260200190815260200160002060030160009054906101000a900460ff16151514613392576040517f08c379a0000000000000000000000000000000000000000000000000000000008152600401613389906150c1565b60405180910390fd5b600060048111156133a6576133a5614c3a565b5b600260003373ffffffffffffffffffffffffffffffffffffffff1673ffffffffffffffffffffffffffffffffffffffff16815260200190815260200160002060030160019054906101000a900460ff16600481111561340857613407614c3a565b5b03613448576040517f08c379a000000000000000000000000000000000000000000000000000000000815260040161343f90614ff5565b60405180910390fd5b600460003373ffffffffffffffffffffffffffffffffffffffff1673ffffffffffffffffffffffffffffffffffffffff168152602001908152602001600020604051806101200160405290816000820180546134a390615044565b80601f01602080910402602001604051908101604052809291908181526020018280546134cf90615044565b801561351c5780601f106134f15761010080835404028352916020019161351c565b820191906000526020600020905b8154815290600101906020018083116134ff57829003601f168201915b5050505050815260200160018201805461353590615044565b80601f016020809104026020016040519081016040528092919081815260200182805461356190615044565b80156135ae5780601f10613583576101008083540402835291602001916135ae565b820191906000526020600020905b81548152906001019060200180831161359157829003601f168201915b505050505081526020016002820180546135c790615044565b80601f01602080910402602001604051908101604052809291908181526020018280546135f390615044565b80156136405780601f1061361557610100808354040283529160200191613640565b820191906000526020600020905b81548152906001019060200180831161362357829003601f168201915b5050505050815260200160038201805461365990615044565b80601f016020809104026020016040519081016040528092919081815260200182805461368590615044565b80156136d25780601f106136a7576101008083540402835291602001916136d2565b820191906000526020600020905b8154815290600101906020018083116136b557829003601f168201915b50505050508152602001600482015481526020016005820154815260200160068201548152602001600782015481526020016008820160009054906101000a900473ffffffffffffffffffffffffffffffffffffffff1673ffffffffffffffffffffffffffffffffffffffff1673ffffffffffffffffffffffffffffffffffffffff1681525050905090565b60011515600260003373ffffffffffffffffffffffffffffffffffffffff1673ffffffffffffffffffffffffffffffffffffffff16815260200190815260200160002060030160009054906101000a900460ff161515036137f4576040517f08c379a00000000000000000000000000000000000000000000000000000000081526004016137eb90615659565b60405180910390fd5b60011515600360003373ffffffffffffffffffffffffffffffffffffffff1673ffffffffffffffffffffffffffffffffffffffff16815260200190815260200160002060020160009054906101000a900460ff1615150361388a576040517f08c379a0000000000000000000000000000000000000000000000000000000008152600401613881906156eb565b60405180910390fd5b6040518060a00160405280848152602001838152602001828152602001600115158152602001600060048111156138c4576138c3614c3a565b5b815250600260003373ffffffffffffffffffffffffffffffffffffffff1673ffffffffffffffffffffffffffffffffffffffff168152602001908152602001600020600082015181600001908161391b919061538b565b506020820151816001019081613931919061538b565b506040820151816002019081613947919061538b565b5060608201518160030160006101000a81548160ff02191690831515021790555060808201518160030160016101000a81548160ff0219169083600481111561399357613992614c3a565b5b0217905550905050600c339080600181540180825580915050600190039060005260206000200160009091909190916101000a81548173ffffffffffffffffffffffffffffffffffffffff021916908373ffffffffffffffffffffffffffffffffffffffff160217905550505050565b600060011515600260003373ffffffffffffffffffffffffffffffffffffffff1673ffffffffffffffffffffffffffffffffffffffff16815260200190815260200160002060030160009054906101000a900460ff16151503613a695760019050613a6e565b600090505b90565b606060011515600360003373ffffffffffffffffffffffffffffffffffffffff1673ffffffffffffffffffffffffffffffffffffffff16815260200190815260200160002060020160009054906101000a900460ff16151514613b09576040517f08c379a0000000000000000000000000000000000000000000000000000000008152600401613b0090614f89565b60405180910390fd5b60026004811115613b1d57613b1c614c3a565b5b600260008473ffffffffffffffffffffffffffffffffffffffff1673ffffffffffffffffffffffffffffffffffffffff16815260200190815260200160002060030160019054906101000a900460ff166004811115613b7f57613b7e614c3a565b5b14613bbf576040517f08c379a0000000000000000000000000000000000000000000000000000000008152600401613bb6906155ed565b60405180910390fd5b60011515600360003373ffffffffffffffffffffffffffffffffffffffff1673ffffffffffffffffffffffffffffffffffffffff16815260200190815260200160002060020160019054906101000a900460ff16151514613c55576040517f08c379a0000000000000000000000000000000000000000000000000000000008152600401613c4c90614eb1565b60405180910390fd5b6003600260008473ffffffffffffffffffffffffffffffffffffffff1673ffffffffffffffffffffffffffffffffffffffff16815260200190815260200160002060030160016101000a81548160ff02191690836004811115613cbb57613cba614c3a565b5b0217905550600960003373ffffffffffffffffffffffffffffffffffffffff1673ffffffffffffffffffffffffffffffffffffffff168152602001908152602001600020829080600181540180825580915050600190039060005260206000200160009091909190916101000a81548173ffffffffffffffffffffffffffffffffffffffff021916908373ffffffffffffffffffffffffffffffffffffffff160217905550600a60008373ffffffffffffffffffffffffffffffffffffffff1673ffffffffffffffffffffffffffffffffffffffff168152602001908152602001600020339080600181540180825580915050600190039060005260206000200160009091909190916101000a81548173ffffffffffffffffffffffffffffffffffffffff021916908373ffffffffffffffffffffffffffffffffffffffff16021790555033600460008473ffffffffffffffffffffffffffffffffffffffff1673ffffffffffffffffffffffffffffffffffffffff16815260200190815260200160002060080160006101000a81548173ffffffffffffffffffffffffffffffffffffffff021916908373ffffffffffffffffffffffffffffffffffffffff160217905550604051806060016040528060228152602001615778602291399050919050565b60015481565b60011515600260003373ffffffffffffffffffffffffffffffffffffffff1673ffffffffffffffffffffffffffffffffffffffff16815260200190815260200160002060030160009054906101000a900460ff16151514613f3d576040517f08c379a0000000000000000000000000000000000000000000000000000000008152600401613f34906150c1565b60405180910390fd5b60016004811115613f5157613f50614c3a565b5b600260003373ffffffffffffffffffffffffffffffffffffffff1673ffffffffffffffffffffffffffffffffffffffff16815260200190815260200160002060030160019054906101000a900460ff166004811115613fb357613fb2614c3a565b5b14613ff3576040517f08c379a0000000000000000000000000000000000000000000000000000000008152600401613fea90615757565b60405180910390fd5b60011515600360008373ffffffffffffffffffffffffffffffffffffffff1673ffffffffffffffffffffffffffffffffffffffff16815260200190815260200160002060020160019054906101000a900460ff16151514614089576040517f08c379a000000000000000000000000000000000000000000000000000000000815260040161408090614eb1565b60405180910390fd5b6000600560008373ffffffffffffffffffffffffffffffffffffffff1673ffffffffffffffffffffffffffffffffffffffff168152602001908152602001600020905080339080600181540180825580915050600190039060005260206000200160009091909190916101000a81548173ffffffffffffffffffffffffffffffffffffffff021916908373ffffffffffffffffffffffffffffffffffffffff16021790555060028060003373ffffffffffffffffffffffffffffffffffffffff1673ffffffffffffffffffffffffffffffffffffffff16815260200190815260200160002060030160016101000a81548160ff0219169083600481111561419357614192614c3a565b5b021790555081600660003373ffffffffffffffffffffffffffffffffffffffff1673ffffffffffffffffffffffffffffffffffffffff16815260200190815260200160002060006101000a81548173ffffffffffffffffffffffffffffffffffffffff021916908373ffffffffffffffffffffffffffffffffffffffff1602179055505050565b60008054906101000a900473ffffffffffffffffffffffffffffffffffffffff1681565b600060011515600260003373ffffffffffffffffffffffffffffffffffffffff1673ffffffffffffffffffffffffffffffffffffffff16815260200190815260200160002060030160009054906101000a900460ff161515146142d6576040517f08c379a00000000000000000000000000000000000000000000000000000000081526004016142cd906150c1565b60405180910390fd5b600660003373ffffffffffffffffffffffffffffffffffffffff1673ffffffffffffffffffffffffffffffffffffffff16815260200190815260200160002060009054906101000a900473ffffffffffffffffffffffffffffffffffffffff16905090565b604051806080016040528060608152602001606081526020016000151581526020016000151581525090565b6040518061012001604052806060815260200160608152602001606081526020016060815260200160008152602001600081526020016000815260200160008019168152602001600073ffffffffffffffffffffffffffffffffffffffff1681525090565b6040518060a001604052806060815260200160608152602001606081526020016000151581526020016000600481111561440957614408614c3a565b5b81525090565b6000604051905090565b600080fd5b600080fd5b600073ffffffffffffffffffffffffffffffffffffffff82169050919050565b600061444e82614423565b9050919050565b61445e81614443565b811461446957600080fd5b50565b60008135905061447b81614455565b92915050565b60006020828403121561449757614496614419565b5b60006144a58482850161446c565b91505092915050565b600081519050919050565b600082825260208201905092915050565b6000819050602082019050919050565b6144e381614443565b82525050565b60006144f583836144da565b60208301905092915050565b6000602082019050919050565b6000614519826144ae565b61452381856144b9565b935061452e836144ca565b8060005b8381101561455f57815161454688826144e9565b975061455183614501565b925050600181019050614532565b5085935050505092915050565b60006020820190508181036000830152614586818461450e565b905092915050565b600081519050919050565b600082825260208201905092915050565b60005b838110156145c85780820151818401526020810190506145ad565b60008484015250505050565b6000601f19601f8301169050919050565b60006145f08261458e565b6145fa8185614599565b935061460a8185602086016145aa565b614613816145d4565b840191505092915050565b6000819050919050565b6146318161461e565b82525050565b600060a082019050818103600083015261465181886145e5565b9050818103602083015261466581876145e5565b9050818103604083015261467981866145e5565b9050818103606083015261468d81856145e5565b905061469c6080830184614628565b9695505050505050565b600082825260208201905092915050565b60006146c28261458e565b6146cc81856146a6565b93506146dc8185602086016145aa565b6146e5816145d4565b840191505092915050565b60008115159050919050565b614705816146f0565b82525050565b6000608083016000830151848203600086015261472882826146b7565b9150506020830151848203602086015261474282826146b7565b915050604083015161475760408601826146fc565b50606083015161476a60608601826146fc565b508091505092915050565b6000602082019050818103600083015261478f818461470b565b905092915050565b6000819050919050565b6147aa81614797565b82525050565b60006020820190506147c560008301846147a1565b92915050565b600080fd5b600080fd5b7f4e487b7100000000000000000000000000000000000000000000000000000000600052604160045260246000fd5b61480d826145d4565b810181811067ffffffffffffffff8211171561482c5761482b6147d5565b5b80604052505050565b600061483f61440f565b905061484b8282614804565b919050565b600067ffffffffffffffff82111561486b5761486a6147d5565b5b614874826145d4565b9050602081019050919050565b82818337600083830152505050565b60006148a361489e84614850565b614835565b9050828152602081018484840111156148bf576148be6147d0565b5b6148ca848285614881565b509392505050565b600082601f8301126148e7576148e66147cb565b5b81356148f7848260208601614890565b91505092915050565b6000806040838503121561491757614916614419565b5b600083013567ffffffffffffffff8111156149355761493461441e565b5b614941858286016148d2565b925050602083013567ffffffffffffffff8111156149625761496161441e565b5b61496e858286016148d2565b9150509250929050565b61498181614797565b82525050565b6149908161461e565b82525050565b60006101208301600083015184820360008601526149b482826146b7565b915050602083015184820360208601526149ce82826146b7565b915050604083015184820360408601526149e882826146b7565b91505060608301518482036060860152614a0282826146b7565b9150506080830151614a176080860182614978565b5060a0830151614a2a60a0860182614978565b5060c0830151614a3d60c0860182614978565b5060e0830151614a5060e0860182614987565b50610100830151614a656101008601826144da565b508091505092915050565b60006020820190508181036000830152614a8a8184614996565b905092915050565b614a9b81614443565b82525050565b6000602082019050614ab66000830184614a92565b92915050565b614ac581614797565b8114614ad057600080fd5b50565b600081359050614ae281614abc565b92915050565b614af18161461e565b8114614afc57600080fd5b50565b600081359050614b0e81614ae8565b92915050565b600080600080600080600080610100898b031215614b3557614b34614419565b5b600089013567ffffffffffffffff811115614b5357614b5261441e565b5b614b5f8b828c016148d2565b985050602089013567ffffffffffffffff811115614b8057614b7f61441e565b5b614b8c8b828c016148d2565b975050604089013567ffffffffffffffff811115614bad57614bac61441e565b5b614bb98b828c016148d2565b965050606089013567ffffffffffffffff811115614bda57614bd961441e565b5b614be68b828c016148d2565b9550506080614bf78b828c01614ad3565b94505060a0614c088b828c01614ad3565b93505060c0614c198b828c01614ad3565b92505060e0614c2a8b828c01614aff565b9150509295985092959890939650565b7f4e487b7100000000000000000000000000000000000000000000000000000000600052602160045260246000fd5b60058110614c7a57614c79614c3a565b5b50565b6000819050614c8b82614c69565b919050565b6000614c9b82614c7d565b9050919050565b614cab81614c90565b82525050565b600060a0830160008301518482036000860152614cce82826146b7565b91505060208301518482036020860152614ce882826146b7565b91505060408301518482036040860152614d0282826146b7565b9150506060830151614d1760608601826146fc565b506080830151614d2a6080860182614ca2565b508091505092915050565b60006020820190508181036000830152614d4f8184614cb1565b905092915050565b614d60816146f0565b82525050565b6000602082019050614d7b6000830184614d57565b92915050565b60006020820190508181036000830152614d9b81846145e5565b905092915050565b600080600060608486031215614dbc57614dbb614419565b5b600084013567ffffffffffffffff811115614dda57614dd961441e565b5b614de6868287016148d2565b935050602084013567ffffffffffffffff811115614e0757614e0661441e565b5b614e13868287016148d2565b925050604084013567ffffffffffffffff811115614e3457614e3361441e565b5b614e40868287016148d2565b9150509250925092565b6000602082019050614e5f6000830184614628565b92915050565b7f42616e6b206e6f74207665726966696564000000000000000000000000000000600082015250565b6000614e9b601183614599565b9150614ea682614e65565b602082019050919050565b60006020820190508181036000830152614eca81614e8e565b9050919050565b7f436c69656e74204b5943206973206e6f74207665726966696564000000000000600082015250565b6000614f07601a83614599565b9150614f1282614ed1565b602082019050919050565b60006020820190508181036000830152614f3681614efa565b9050919050565b7f42616e6b2041646472657373206e6f7420726567697374657265640000000000600082015250565b6000614f73601b83614599565b9150614f7e82614f3d565b602082019050919050565b60006020820190508181036000830152614fa281614f66565b9050919050565b7f4b5943206e6f742055706c6f6164656400000000000000000000000000000000600082015250565b6000614fdf601083614599565b9150614fea82614fa9565b602082019050919050565b6000602082019050818103600083015261500e81614fd2565b9050919050565b7f4e487b7100000000000000000000000000000000000000000000000000000000600052602260045260246000fd5b6000600282049050600182168061505c57607f821691505b60208210810361506f5761506e615015565b5b50919050565b7f557365722041646472657373206e6f7420726567697374657265640000000000600082015250565b60006150ab601b83614599565b91506150b682615075565b602082019050919050565b600060208201905081810360008301526150da8161509e565b9050919050565b7f42616e6b204164647265737320616c7265616479207265676973746572656400600082015250565b6000615117601f83614599565b9150615122826150e1565b602082019050919050565b600060208201905081810360008301526151468161510a565b9050919050565b7f54686973206163636f756e74206973207265676973746572656420617320612060008201527f7573657200000000000000000000000000000000000000000000000000000000602082015250565b60006151a9602483614599565b91506151b48261514d565b604082019050919050565b600060208201905081810360008301526151d88161519c565b9050919050565b60008190508160005260206000209050919050565b60006020601f8301049050919050565b600082821b905092915050565b6000600883026152417fffffffffffffffffffffffffffffffffffffffffffffffffffffffffffffffff82615204565b61524b8683615204565b95508019841693508086168417925050509392505050565b6000819050919050565b600061528861528361527e84614797565b615263565b614797565b9050919050565b6000819050919050565b6152a28361526d565b6152b66152ae8261528f565b848454615211565b825550505050565b600090565b6152cb6152be565b6152d6818484615299565b505050565b5b818110156152fa576152ef6000826152c3565b6001810190506152dc565b5050565b601f82111561533f57615310816151df565b615319846151f4565b81016020851015615328578190505b61533c615334856151f4565b8301826152db565b50505b505050565b600082821c905092915050565b600061536260001984600802615344565b1980831691505092915050565b600061537b8383615351565b9150826002028217905092915050565b6153948261458e565b67ffffffffffffffff8111156153ad576153ac6147d5565b5b6153b78254615044565b6153c28282856152fe565b600060209050601f8311600181146153f557600084156153e3578287015190505b6153ed858261536f565b865550615455565b601f198416615403866151df565b60005b8281101561542b57848901518255600182019150602085019450602081019050615406565b868310156154485784890151615444601f891682615351565b8355505b6001600288020188555050505b505050505050565b7f41646d696e206163636573732072657175697265640000000000000000000000600082015250565b6000615493601583614599565b915061549e8261545d565b602082019050919050565b600060208201905081810360008301526154c281615486565b9050919050565b7f42616e6b20616c72656164792076657269666965640000000000000000000000600082015250565b60006154ff601583614599565b915061550a826154c9565b602082019050919050565b6000602082019050818103600083015261552e816154f2565b9050919050565b7f4b594320616c72656164792075706c6f61646564000000000000000000000000600082015250565b600061556b601483614599565b915061557682615535565b602082019050919050565b6000602082019050818103600083015261559a8161555e565b9050919050565b7f4b5943206d757374206265207265717565737465642066697273740000000000600082015250565b60006155d7601b83614599565b91506155e2826155a1565b602082019050919050565b60006020820190508181036000830152615606816155ca565b9050919050565b7f55736572204164647265737320616c7265616479207265676973746572656400600082015250565b6000615643601f83614599565b915061564e8261560d565b602082019050919050565b6000602082019050818103600083015261567281615636565b9050919050565b7f546869732061646472657373206973207265676973746572656420617320612060008201527f62616e6b00000000000000000000000000000000000000000000000000000000602082015250565b60006156d5602483614599565b91506156e082615679565b604082019050919050565b60006020820190508181036000830152615704816156c8565b9050919050565b7f4b5943207374617475732073686f756c642062652075706c6f61646564000000600082015250565b6000615741601d83614599565b915061574c8261570b565b602082019050919050565b6000602082019050818103600083015261577081615734565b905091905056fe4b594320686173206265656e2053756363657366756c6c7920766572696669656420a26469706673582212206df8a5c26074de2b58968ed47147d036e1c87b4432fa5a598b9a9481c39ac2a564736f6c63430008130033",
  "linkReferences": {},
  "deployedLinkReferences": {}
}